:100000000C9434000C9451000C9451000C94510049
:100010000C9451000C9451000C9451000C9451001C
:100020000C9451000C9451000C9451000C94D0018C
:100030000C9451000C9451000C9451000C945100FC
:100040000C9451000C9451000C9451000C945100EC
:100050000C9451000C9451000C9451000C945100DC
:100060000C9451000C94510011241FBECFEFD8E026
:10007000DEBFCDBF11E0A0E0B1E0ECE2F4E102C0F0
:1000800005900D92A63EB107D9F721E0A6EEB1E0AA
:1000900001C01D92AD3FB207E1F70E9419040C9414
:1000A000140A0C940000882329F0813031F082304A
:1000B00049F406C0E4E2F0E005C0E7E2F0E002C087
:1000C000EAE2F0E0413059F4208181E090E002C0A2
:1000D000880F991F6A95E2F7822B8083089590819B
:1000E00021E030E002C0220F331F6A95E2F7422F71
:1000F000409594239083882329F0813031F0823019
:1001000049F406C0A5E2B0E005C0A8E2B0E002C034
:10011000ABE2B0E08C91282B2C930895882329F032
:10012000813031F0823049F406C0E5E2F0E005C0EC
:10013000E8E2F0E002C0EBE2F0E0413059F4208167
:1001400081E090E002C0880F991F6A95E2F7822B48
:1001500080830895208181E090E002C0880F991F7C
:100160006A95E2F7809582238083089528B1982FBD
:1001700096959695392F3C73232B28B928B1936C0B
:10018000922398B998B19E7F98B998B1926098B926
:10019000EFE9FFE03197F1F700C0000098B19D7FD3
:1001A00098B9EFE9FFE03197F1F700C0000028B1FE
:1001B00090E0880F991F880F991F982F9C73922B9E
:1001C00098B998B1836C892388B988B1826088B95D
:1001D0008FE99FE00197F1F700C0000088B18D7FA3
:1001E00088B9EFE9FFE03197F1F700C0000008950A
:1001F0008CE387B987B1836087B988E088B988B113
:10020000826088B988B18E7F88B98FE99FE00197B5
:10021000F1F700C0000088B18D7F88B98FE99FE0B9
:100220000197F1F700C0000088E20E94B6008FE954
:100230009FE00197F1F700C000008FE00E94B60038
:100240008FE99FE00197F1F700C0000080E80E946D
:10025000B600089528B1982F96959695392F3C733E
:10026000232B28B928B1936C922398B998B1916047
:1002700098B998B1926098B9EFE3FFE13197F1F73F
:1002800000C0000098B19D7F98B9EFE3FFE131977E
:10029000F1F700C0000028B190E0880F991F880F87
:1002A000991F982F9C73922B98B998B1836C8923CE
:1002B00088B988B1826088B98FE39FE10197F1F72F
:1002C00000C0000088B18D7F88B9EFE3FFE131976E
:1002D000F1F700C0000008950F931F93CF93DF93B1
:1002E0008C01C0E0D0E003C00E942A012196F801F1
:1002F000EC0FFD1F80818111F7CFDF91CF911F910E
:100300000F91089581E00E94B6008FE19EE401976D
:10031000F1F700C00000089520E4829FC00111247D
:100320008068860F0E94B60087EC90E00197F1F795
:1003300000C000000895F999FECF92BD81BD8FB332
:1003400081608FBB80B50895F999FECF92BD81BDC4
:1003500060BD8FB384608FBB8FB382608FBB089505
:100360001F93CF93DF93EC01162F0E949B018117FF
:1003700021F0612FCE010E94A401DF91CF911F9146
:100380000895109280008DE08093810089E09DE3C4
:10039000909389008093880082E080936F00089595
:1003A0001F920F920FB60F9211248F938091E90143
:1003B0008F5F8093E9018091E9018A30D0F010923B
:1003C000E9018091EB018F5F8093EB011092EA01CC
:1003D0008091EB018C3368F01092EB018091EC017D
:1003E0008F5F8093EC018091EC01883110F01092C6
:1003F000EC0181E08093E8018F910F900FBE0F9088
:100400001F90189584B1826084B985B1826085B9E6
:100410000895CF93DF9300D000D000D0CDB7DEB7E2
:10042000BE016B5F7F4F86E20E945A068823A1F0CF
:10043000CE0101960E948606882381F089819A81E7
:10044000AB81BC818093F9019093FA01A093FB01E9
:10045000B093FC0181E003C080E001C080E02696FB
:100460000FB6F894DEBF0FBECDBFDF91CF910895D8
:10047000DC0190E00DC0292F30E0FD01E20FF31FF9
:100480004081FB01E20FF31F2081421305C09F5FF3
:10049000943088F381E0089580E0089587EF8BB968
:1004A00089EF90E00197F1F700C000004F9B08C072
:1004B0004E9B08C04D9B08C04C9B08C080E007C005
:1004C00081E305C084E303C087E301C08AE28111B0
:1004D00018C09BEF9BB9E9EFF0E03197F1F700C04E
:1004E00000004F9B07C04E9B07C04D9B07C04C9B15
:1004F00007C007C082E305C085E303C088E301C0ED
:1005000080E3811118C09DEF9BB9E9EFF0E03197CE
:10051000F1F700C000004F9B07C04E9B07C04D9BEA
:1005200007C04C9B07C007C083E305C086E303C038
:1005300089E301C083E2811118C09EEF9BB9E9EF06
:10054000F0E03197F1F700C000004F9B07C04E9BD1
:1005500007C04D9B07C04C9B07C007C081E405C086
:1005600082E403C083E401C084E4882339F09091DD
:100570000001992319F0109200010895811105C01E
:1005800081E08093000181E4089581E408950F9350
:100590001F93CF938C01C0E009C08C2F90E0F8012D
:1005A000E80FF91F60810E94B001CF5FC430A8F34B
:1005B000CF911F910F9108950E94820160E081E028
:1005C0000E948C0189E091E00E946C0160E080E073
:1005D0000E948C0180E191E00E946C0108951092CC
:1005E000E70180EA0E94D5060E94DC02089584316A
:1005F00018F461E0680F01C060E089E090E00E94BB
:10060000B00108951F93CF93DF9389E090E00E949B
:100610009B01182FC82FD0E02596CC0FDD1F6091CD
:10062000EC01CE010E94B0016091EB01CE01019678
:100630000E94B001812F0E94F702DF91CF911F919C
:10064000089581E08093E7010E94820160E080E0EC
:100650000E948C018BE191E00E946C0160E081E0DE
:100660000E948C0188E291E00E946C018BB141E014
:1006700060E00E948E0085E20E94D5060E9402037F
:100680000895EF92FF920F931F93CF93DF937C0116
:1006900010E000E00CC0C12FD0E0CE010E949B0111
:1006A000CE0DDF1D9881891301C00F5F1F5F1430CD
:1006B00090F30430A9F40E94820160E080E00E947F
:1006C0008C018DE291E00E946C0160E081E00E946B
:1006D0008C018DE391E00E946C010E9421031DC0FA
:1006E0000E94820160E080E00E948C018DE491E034
:1006F0000E946C0160E081E00E948C018DE591E038
:100700000E946C012FE78AE196E0215080409040E2
:10071000E1F700C000000E94DC02DF91CF911F9141
:100720000F91FF90EF900895DF92EF92FF920F9359
:100730001F93CF93DF93CDB7DEB72C970FB6F89406
:10074000DEBF0FBECDBF81E08093E6010E94820133
:1007500060E080E00E948C018AE691E00E946C01DA
:1007600060E081E00E948C0188E791E00E946C01CA
:10077000DD24D394E12C0E944E028332E1F70E2D4A
:1007800010E00B5F1F4F000F111FC8010E949B015B
:10079000F82EC80101960E949B01182F28E12F1501
:1007A00028F18D3318F560E081E00E948C011F92E2
:1007B0001F931F92FF921F92DF9288E891E09F9310
:1007C0008F931F928CE08F938E010F5F1F4F1F93AB
:1007D0000F930E941C07C8010E946C01E394D394FC
:1007E0000FB6F894DEBF0FBECDBFC5CF60E081E08D
:1007F0000E948C018CE991E00E946C019FE72AE144
:1008000086E0915020408040E1F700C000000E9447
:10081000DC021092E6012C960FB6F894DEBF0FBEF4
:10082000CDBFDF91CF911F910F91FF90EF90DF909F
:100830000895CF93DF93CDB7DEB728970FB6F8941E
:10084000DEBF0FBECDBF8AB18F608AB98AB18F700B
:100850008AB98BB1806F8BB98BB18F608BB941E056
:1008600060E082E00E9453008BB18E7F8BB90E94C2
:10087000F8000E94C1010E9402020E9497050E9496
:10088000BF0678940E94DC0200E0E12C0E944E0238
:10089000182F8091E801882341F18091E6018111B0
:1008A00024C01092E8019091EB018091EC011F921D
:1008B0009F931F928F938DEA91E09F938F931F9246
:1008C0008CE08F938DEE91E09F938F930E941C0795
:1008D00067E081E00E948C018DEE91E00E946C0146
:1008E0000FB6F894DEBF0FBECDBF1A3231F480913F
:1008F000E701811102C00F5F03C0113409F000E06D
:100900000230D1F50F5F0330B1F50E94820160E043
:1009100080E00E948C0187EB91E00E946C0160E016
:1009200081E00E948C0187EC91E00E946C0100E064
:1009300016C00E944E0210ED180F1A3080F46AE0C3
:10094000600F81E00E948C018AE20E942A01E5E0AA
:10095000F0E0EC0FFD1FE00FF11D10830F5F04307E
:1009600040F3CE0105960E94C7020E94DC0200E01F
:10097000E12C11E401C0E12C0F2EF0EDFF2EF02D43
:10098000F10E99E09F15F0F023E02E15D8F080913C
:10099000E701811117C06AE06E0D0E948C018AE2A6
:1009A0000E942A01E1E0F0E0EC0FFD1FEE0DF11DC9
:1009B000F082E39483E08E1528F4CE0101960E9424
:1009C0004103E12C0E9409028823E9F18091E701AB
:1009D000811139C065E071E089EF91E00E94380231
:1009E000811108C061E071E089EF91E00E94380256
:1009F000882319F00E9421031DC00E94820160E03B
:100A000080E00E948C0182ED91E00E946C0160E028
:100A100081E00E948C018DE591E00E946C019FE7CE
:100A20002AE186E0915020408040E1F700C00000BC
:100A30000E94DC029FE32DE083E091502040804043
:100A4000E1F700C00000133211F40E94940380917A
:100A5000E701882309F41ACF1A3209F017CF0E9450
:100A6000EF0214CF84B18C6284B981E58CBD85B16D
:100A7000846085B908958EBD0DB407FEFDCF8EB597
:100A80000895CF93C62F95B19B7F95B990E0880FBD
:100A9000991F8E770E943B058C2F0E943B0585B1E4
:100AA000846085B9CF91089595B19B7F95B990E009
:100AB000880F991F8E7780680E943B0580E00E9416
:100AC0003B0595B1946095B90895CF93DF93D82FE6
:100AD000C62F0E945405682F6C2B8D2F0E94410554
:100AE000DF91CF910895CF93DF93D82FC62F0E9427
:100AF0005405C0956C2F68238D2F0E944105DF910E
:100B0000CF9108956FE081E00E94410583ED90E36D
:100B10000197F1F700C00000089584E10E94540598
:100B2000837021F463E084E10E94650508950E94CA
:100B300032050E94820560E082E10E94410560E08A
:100B400083E10E94410566E284E20E94410560E87B
:100B50008AE20E94410569EA8BE20E94410568EE43
:100B60008DE20E94410563E08CE20E94410560E451
:100B700085E10E9441056DE381E10E9441050E94EB
:100B80008D0508958F929F92AF92BF92CF92DF9280
:100B9000EF92FF920F931F93CF93DF93982E5B01F9
:100BA000842E7901680160E081E00E94410567EFD1
:100BB00082E00E94410560E884E00E94730560E8DD
:100BC0008AE00E946505C0E0D0E008C0F501EC0FA6
:100BD000FD1F608189E00E9441052196882D90E0EB
:100BE000C817D90798F3692D81E00E9441058CE070
:100BF000981204C060E88DE00E946505C0EDD7E062
:100C000084E00E945405182F219721F080FD02C036
:100C10008073B1F360E88DE00E947305CD2BC9F1BC
:100C200086E00E9454058B71B1F510FD02C0C1E051
:100C300001C0C0E0ECE09E122FC08AE00E94540583
:100C4000D82F8CE00E945405877049F02D2F30E09A
:100C500021503109220F220F220F820F04C08D2F45
:100C6000880F880F880FF6018083C12CD12C0BC010
:100C70005701AC0CBD1C89E00E945405F50180832E
:100C8000FFEFCF1ADF0A8D2F90E0C816D90680F348
:100C900003C0C0E001C0C0E08C2FDF91CF911F9155
:100CA0000F91FF90EF90DF90CF90BF90AF909F900B
:100CB0008F900895EF92FF920F931F93CF93DF933E
:100CC0001F92CDB7DEB7182F7B0167E08DE00E9441
:100CD0004105F70110838E010F5F1F4F970141E01F
:100CE000B7018CE00E94C205882329F089818031F8
:100CF00021F080E003C080E001C081E00F90DF912F
:100D0000CF911F910F91FF90EF900895EF92FF9276
:100D10000F931F93CF93DF931F92CDB7DEB77C0164
:100D200060E08DE00E94410583E9F701808380E265
:100D300081838E010F5F1F4F970142E0B7018CE066
:100D40000E94C205882391F090E080E006C0F70180
:100D5000E80FF11D208192278F5F8430C0F3F701E7
:100D6000248181E0921719F080E001C080E00F90AB
:100D7000DF91CF911F910F91FF90EF90089584B173
:100D8000826084B982E8809380008AE18093810048
:100D90008FE39CE9909387008093860088EB9BE02B
:100DA00090938900809388000895853B08F084EB38
:100DB000282F30E0A0E1BEE00E940D0724EB30E0D8
:100DC00040E050E00E94EB06245B3B4F30938900EB
:100DD000209388000895A1E21A2EAA1BBB1BFD01D7
:100DE0000DC0AA1FBB1FEE1FFF1FA217B307E4070A
:100DF000F50720F0A21BB30BE40BF50B661F771F62
:100E0000881F991F1A9469F7609570958095909541
:100E10009B01AC01BD01CF010895A29FB001B39F1A
:100E2000C001A39F700D811D1124911DB29F700DF3
:100E3000811D1124911D0895AEE0B0E0E2E2F7E0DB
:100E40000C94EB090D891E898F89988D26E02C83DF
:100E50001A83098397FF02C080E090E801979E8380
:100E60008D83AE01455E5F4F698D7A8DCE0101960F
:100E70000E944C074D815E8157FD0AC02F81388545
:100E8000421753070CF49A01F801E20FF31F108286
:100E90002E96E4E00C94070AABE0B0E0E2E5F7E060
:100EA0000C94DD096C017B018A01FC01178216821A
:100EB000838181FFCCC1CE0101963C01F601938173
:100EC000F70193FD859193FF81917F01882309F4B8
:100ED000BAC1853239F493FD859193FF81917F01E9
:100EE000853229F4B60190E00E944309E7CF912CA6
:100EF000212C312CFFE1F315D8F08B3279F038F446
:100F0000803279F08332A1F4232D20611DC08D320F
:100F100061F0803369F4232D216016C0832D826037
:100F2000382EE32DE4603E2E2AC0F32DF8601DC05C
:100F300037FC2DC020ED280F2A3040F08E32B9F456
:100F400036FC81C1232D2064322E19C036FE06C026
:100F50008AE0989E200D1124922E11C0EAE02E9E68
:100F6000200D1124222EF32DF0623F2E08C08C3666
:100F700021F4832D8068382E02C0883641F4F701B1
:100F800093FD859193FF81917F018111B3CF982FBC
:100F90009F7D9554933028F40C5F1F4F9FE39983F6
:100FA0000DC0833631F0833771F0833509F059C0B5
:100FB00021C0F801808189830E5F1F4F88248394AC
:100FC000912C530113C02801F2E04F0E511CF8017F
:100FD000A080B18036FE03C0692D70E002C06FEFC3
:100FE0007FEFC5010E9438094C018201F32DFF7784
:100FF0003F2E16C0280122E0420E511CF801A080AD
:10100000B18036FE03C0692D70E002C06FEF7FEF44
:10101000C5010E942D094C01F32DF0683F2E82017D
:1010200033FC1BC0822D90E088169906B0F4B601FF
:1010300080E290E00E9443092A94F4CFF50137FC46
:10104000859137FE81915F01B60190E00E944309CE
:1010500021102A9421E0821A91088114910471F7D9
:10106000E8C0843611F0893641F5F80137FE07C033
:1010700060817181828193810C5F1F4F08C0608104
:101080007181072E000C880B990B0E5F1F4FF32DFB
:10109000FF763F2E97FF09C09095809570956195DA
:1010A0007F4F8F4F9F4FF0683F2E2AE030E0A30123
:1010B0000E947F09882E861845C0853731F4232D7C
:1010C0002F7EB22E2AE030E025C0932D997FB92ED5
:1010D0008F36C1F018F4883579F0B5C0803719F033
:1010E000883721F0B0C0E92FE061BE2EB4FE0DC0FC
:1010F000FB2DF460BF2E09C034FE0AC0292F2660E4
:10110000B22E06C028E030E005C020E130E002C089
:1011100020E132E0F801B7FE07C060817181828171
:1011200093810C5F1F4F06C06081718180E090E069
:101130000E5F1F4FA3010E947F09882E8618FB2D8A
:10114000FF773F2E36FE0DC0232D2E7FA22E891451
:1011500058F434FE0BC032FC09C0832D8E7EA82EBD
:1011600005C0B82CA32C03C0B82C01C0B92CA4FE18
:101170000FC0FE01E80DF11D8081803321F49A2D0E
:10118000997EA92E09C0A2FE06C0B394B39404C0F0
:101190008A2D867809F0B394A3FC11C0A0FE06C086
:1011A000B21488F4280C922C9B180EC0B21460F470
:1011B000B60180E290E00E944309B394F7CFB214E5
:1011C00018F42B1802C0982C212CA4FE10C0B601D4
:1011D00080E390E00E944309A2FE17C0A1FC03C077
:1011E00088E790E002C088E590E0B6010CC08A2D47
:1011F000867859F0A1FE02C08BE201C080E2A7FC14
:101200008DE2B60190E00E944309891438F4B601DA
:1012100080E390E00E9443099A94F7CF8A94F30107
:10122000E80DF11D8081B60190E00E944309811014
:10123000F5CF222009F442CEB60180E290E00E9470
:1012400043092A94F6CFF6018681978102C08FEF79
:101250009FEF2B96E2E10C94F909FC010590615097
:1012600070400110D8F7809590958E0F9F1F0895BC
:10127000FC016150704001900110D8F78095909565
:101280008E0F9F1F08950F931F93CF93DF93FB0142
:10129000238121FD03C08FEF9FEF2CC022FF16C0DA
:1012A00046815781248135814217530744F4A08138
:1012B000B1819D012F5F3F4F318320838C93268125
:1012C00037812F5F3F4F3783268314C08B01EC019A
:1012D000FB010084F185E02D0995892BE1F6D80109
:1012E00016968D919C911797019617969C938E93C5
:1012F0001697CE01DF91CF911F910F910895FA01BA
:10130000AA27283051F1203181F1E8946F936E7F44
:101310006E5F7F4F8F4F9F4FAF4FB1E03ED0B4E035
:101320003CD0670F781F891F9A1FA11D680F791F76
:101330008A1F911DA11D6A0F711D811D911DA11D87
:1013400020D009F468943F912AE0269F1124301997
:10135000305D3193DEF6CF010895462F4770405D32
:101360004193B3E00FD0C9F7F6CF462F4F70405DE1
:101370004A3318F0495D31FD4052419302D0A9F73C
:10138000EACFB4E0A6959795879577956795BA9536
:10139000C9F700976105710508959B01AC010A2EFC
:1013A00006945795479537952795BA95C9F7620FD3
:1013B000731F841F951FA01D08952F923F924F9277
:1013C0005F926F927F928F929F92AF92BF92CF92D5
:1013D000DF92EF92FF920F931F93CF93DF93CDB7DE
:1013E000DEB7CA1BDB0B0FB6F894DEBF0FBECDBF56
:1013F00009942A88398848885F846E847D848C8427
:101400009B84AA84B984C884DF80EE80FD800C812F
:101410001B81AA81B981CE0FD11D0FB6F894DEBF12
:0C1420000FBECDBFED010895F894FFCF82
:10142C0001081324913E1BED00486F75723A2000A1
:10143C0050617373776F72643A20005374617475E2
:10144C007320446F6F723A004F50454E00537563D2
:10145C0063657366756C20436F646521004F70651E
:10146C006E696E6720446F6F722E2E2E00496E636C
:10147C006F727265637420436F64652100547279D6
:10148C0020616761696E2E2E2E00456E7472792074
:10149C00486973746F7279005072657373202723D7
:1014AC00273A204E6578740025752E20253032752C
:1014BC003A2530327520202020202000454E442033
:1014CC002020202020202020202020200025303209
:1014DC00753A25303275002D204368616E67696E50
:1014EC006720436F6465004E657720436F64653AEF
:1014FC002000496E636F72726563742052464944D2
:06150C002100257500001E
:00000001FF
