:100000000C9434000C9451000C9451000C94510049
:100010000C9451000C9451000C9451000C9451001C
:100020000C9451000C9451000C9451000C949A04BF
:100030000C9451000C9451000C9451000C945100FC
:100040000C9451000C9451000C9451000C945100EC
:100050000C9451000C9451000C9451000C945100DC
:100060000C9451000C94510011241FBECFEFD8E026
:10007000DEBFCDBF11E0A0E0B1E0E8EAF3E102C0ED
:1000800005900D92A63EB107D9F721E0A6EEB1E0AA
:1000900001C01D92AE3FB207E1F70E9472030C94BB
:1000A000D2090C94000028B1982F96959695392F77
:1000B0003C73232B28B928B1936C922398B998B13B
:1000C0009E7F98B998B1926098B9EFE9FFE03197B7
:1000D000F1F700C0000098B19D7F98B9EFE9FFE00B
:1000E0003197F1F700C0000028B190E0880F991F08
:1000F000880F991F982F9C73922B98B998B1836C95
:10010000892388B988B1826088B98FE99FE0019717
:10011000F1F700C0000088B18D7F88B9EFE9FFE0FA
:100120003197F1F700C0000008958CE387B987B1DB
:10013000836087B988E088B988B1826088B988B15E
:100140008E7F88B98FE99FE00197F1F700C000002A
:1001500088B18D7F88B98FE99FE00197F1F700C0E2
:10016000000088E20E9453008FE99FE00197F1F7B9
:1001700000C000008FE00E9453008FE99FE00197CC
:10018000F1F700C0000080E80E945300089528B1F4
:10019000982F96959695392F3C73232B28B928B123
:1001A000936C922398B998B1916098B998B1926084
:1001B00098B9EFE3FFE13197F1F700C0000098B183
:1001C0009D7F98B9EFE3FFE13197F1F700C00000A0
:1001D00028B190E0880F991F880F991F982F9C7362
:1001E000922B98B998B1836C892388B988B18260C1
:1001F00088B98FE39FE10197F1F700C0000088B153
:100200008D7F88B9EFE3FFE13197F1F700C000007F
:1002100008950F931F93CF93DF938C01C0E0D0E03C
:1002200003C00E94C7002196F801EC0FFD1F8081DA
:100230008111F7CFDF91CF911F910F91089581E048
:100240000E9453008FE19EE40197F1F700C0000087
:10025000089520E4829FC00111248068860F0E94C7
:10026000530087EC90E00197F1F700C0000008957B
:10027000F999FECF92BD81BD8FB381608FBB80B5F0
:100280000895F999FECF92BD81BD60BD8FB38460A2
:100290008FBB8FB382608FBB08951F93CF93DF9383
:1002A000EC01162F0E943801811721F0612FCE0139
:1002B0000E944101DF91CF911F910895109280001B
:1002C0008DE08093810089E09DE390938900809385
:1002D000880082E080936F00089584B1826084B9C1
:1002E00085B1826085B90895CF93DF9300D000D0A7
:1002F00000D0CDB7DEB7BE016B5F7F4F86E20E94B4
:1003000018068823A1F0CE0101960E944406882396
:1003100081F089819A81AB81BC818093FA019093AD
:10032000FB01A093FC01B093FD0181E003C080E0DC
:1003300001C080E026960FB6F894DEBF0FBECDBF99
:10034000DF91CF910895DC0190E00DC0292F30E0BE
:10035000FD01E20FF31F4081FB01E20FF31F20813B
:10036000421305C09F5F943088F381E0089580E0D8
:10037000089586EF8BB989EF90E00197F1F700C0FF
:1003800000004F9B08C04E9B08C04D9B08C04C9B73
:1003900008C080E007C081E305C084E303C087E3B1
:1003A00001C08AE2811118C09AEF9BB9E9EFF0E031
:1003B0003197F1F700C000004F9B07C04E9B07C06C
:1003C0004D9B07C04C9B07C007C082E305C085E377
:1003D00003C088E301C080E3811118C09CEF9BB982
:1003E000E9EFF0E03197F1F700C000004F9B07C044
:1003F0004E9B07C04D9B07C04C9B07C007C083E3C3
:1004000005C086E303C089E301C083E2882339F095
:1004100090910001992319F0109200010895811123
:1004200005C081E08093000181E4089581E408958E
:100430000F931F93CF938C01C0E009C08C2F90E0E5
:10044000F801E80FF91F60810E944D01CF5FC430B1
:10045000A8F3CF911F910F9108950E941F0160E0B2
:1004600081E00E94290189E091E00E94090160E099
:1004700080E00E94290180E191E00E940901089535
:100480001092E70180EA0E9493060E942D020895CF
:10049000843118F461E0680F01C060E089E090E009
:1004A0000E944D0108951F93CF93DF9389E090E060
:1004B0000E943801182FC82FD0E02596CC0FDD1FE1
:1004C0006091ED01CE010E944D016091EC01CE01E1
:1004D00001960E944D01812F0E944802DF91CF9129
:1004E0001F91089581E08093E7010E941F0160E061
:1004F00080E00E9429018BE191E00E94090160E007
:1005000081E00E94290188E291E00E94090185E2D0
:100510000E9493060E9453020895EF92FF920F9358
:100520001F93CF93DF937C0110E000E00CC0C12F3C
:10053000D0E0CE010E943801CE0DDF1D98818913D5
:1005400001C00F5F1F5F143090F30430F1F40E947C
:100550001F0160E080E00E9429018DE291E00E948D
:10056000090160E081E00E9429018DE391E00E9491
:1005700009012FEB86EC9DE2215080409040E1F78D
:1005800000C000000E9472021DC00E941F0160E0B6
:1005900080E00E9429018DE491E00E94090160E061
:1005A00081E00E9429018DE591E00E9409012FEB75
:1005B00086EC9DE2215080409040E1F700C00000B1
:1005C0000E942D02DF91CF911F910F91FF90EF902C
:1005D0000895DF92EF92FF920F931F93CF93DF93D3
:1005E000CDB7DEB72C970FB6F894DEBF0FBECDBFE8
:1005F00081E08093E6010E941F0160E080E00E949C
:1006000029018AE691E00E94090160E081E00E94F0
:10061000290188E791E00E940901DD24D394E12CAF
:100620000E94B9018332E1F70E2D10E00B5F1F4FDE
:10063000000F111FC8010E943801F82EC801019651
:100640000E943801182F28E12F1528F18D3318F555
:1006500060E081E00E9429011F921F931F92FF9288
:100660001F92DF9288E891E09F938F931F928CE016
:100670008F938E010F5F1F4F1F930F930E94DA0617
:10068000C8010E940901E394D3940FB6F894DEBF29
:100690000FBECDBFC5CF60E081E00E9429018CE98B
:1006A00091E00E9409019FE72AE186E091502040F5
:1006B0008040E1F700C000000E942D021092E60188
:1006C0002C960FB6F894DEBF0FBECDBFDF91CF9151
:1006D0001F910F91FF90EF90DF9008958BB1816093
:1006E0008BB90895CF93DF93CDB7DEB728970FB6B8
:1006F000F894DEBF0FBECDBF8AB181608AB98BB1DD
:100700008E7F8BB98AB18F608AB98AB18F708AB9AE
:100710008BB1806F8BB98BB18F608BB98BB18E7FB2
:100720008BB90E9495000E945E010E946D010E949B
:1007300055050E947D0678940E942D0200E0E12C70
:100740000E94B901182F8091E701882331F0809130
:10075000E9018C3310F00E946E038091E801882338
:1007600041F18091E601811124C01092E80190913D
:10077000EC018091ED011F929F931F928F9380EB6C
:1007800091E09F938F931F928CE08F938EEE91E078
:100790009F938F930E94DA0667E081E00E9429010F
:1007A0008EEE91E00E9409010FB6F894DEBF0FBEF5
:1007B000CDBF1A3231F48091E701811102C00F5F81
:1007C00003C0113409F000E00230D1F50F5F0330AF
:1007D000B1F50E941F0160E080E00E9429018AEBD0
:1007E00091E00E94090160E081E00E9429018AEC09
:1007F00091E00E94090100E016C00E94B90110EDCD
:10080000180F1A3080F46AE0600F81E00E9429011D
:100810008AE20E94C700E5E0F0E0EC0FFD1FE00F68
:10082000F11D10830F5F043040F3CE0105960E9446
:1008300018020E942D0200E0E12C11E401C0E12C1D
:100840000F2EF0EDFF2EF02DF10E99E09F15F0F038
:1008500023E02E15D8F08091E701811117C06AE0DE
:100860006E0D0E9429018AE20E94C700E1E0F0E0DB
:10087000EC0FFD1FEE0DF11DF082E39483E08E1569
:1008800028F4CE0101960E948D02E12C0E94740191
:100890008823E9F18091E701811139C065E071E0B9
:1008A0008AEF91E00E94A301811108C061E071E02C
:1008B0008AEF91E00E94A301882319F00E9472023E
:1008C0001DC00E941F0160E080E00E94290185EDAB
:1008D00091E00E94090160E081E00E9429018DE51C
:1008E00091E00E9409019FE72AE186E091502040B3
:1008F0008040E1F700C000000E942D029FE32DE040
:1009000083E0915020408040E1F700C000001332A6
:1009100011F40E94E9028091E701882309F410CFC5
:100920001A3209F00DCF0E9440020ACF8BB18E7FA0
:100930008BB908951F920F920FB60F9211242F9327
:100940003F934F935F936F937F938F939F93AF9357
:10095000BF93EF93FF938091EA018F5F8093EA0149
:100960008091EA018A3040F11092EA018091EC0115
:100970008F5F8093EC011092EB018091E701882357
:1009800031F08091E9018F5F8093E90104C01092FA
:10099000E9010E9496048091EC018C3368F010927A
:1009A000EC018091ED018F5F8093ED018091ED016D
:1009B000883110F01092ED0181E08093E801FF9101
:1009C000EF91BF91AF919F918F917F916F915F91C7
:1009D0004F913F912F910F900FBE0F901F90189540
:1009E00084B18C6284B981E58CBD85B1846085B9A0
:1009F00008958EBD0DB407FEFDCF8EB50895CF933B
:100A0000C62F95B19B7F95B990E0880F991F8E777F
:100A10000E94F9048C2F0E94F90485B1846085B985
:100A2000CF91089595B19B7F95B990E0880F991F5C
:100A30008E7780680E94F90480E00E94F90495B1E5
:100A4000946095B90895CF93DF93D82FC62F0E9455
:100A50001205682F6C2B8D2F0E94FF04DF91CF9120
:100A60000895CF93DF93D82FC62F0E941205C0950B
:100A70006C2F68238D2F0E94FF04DF91CF91089582
:100A80006FE081E00E94FF0483ED90E30197F1F7AE
:100A900000C00000089584E10E941205837021F4D3
:100AA00063E084E10E94230508950E94F0040E94FF
:100AB000400560E082E10E94FF0460E083E10E9463
:100AC000FF0466E284E20E94FF0460E88AE20E947A
:100AD000FF0469EA8BE20E94FF0468EE8DE20E9447
:100AE000FF0463E08CE20E94FF0460E485E10E9461
:100AF000FF046DE381E10E94FF040E944B0508950D
:100B00008F929F92AF92BF92CF92DF92EF92FF921D
:100B10000F931F93CF93DF93982E5B01842E79015F
:100B2000680160E081E00E94FF0467EF82E00E94BC
:100B3000FF0460E884E00E94310560E88AE00E94DA
:100B40002305C0E0D0E008C0F501EC0FFD1F608177
:100B500089E00E94FF042196882D90E0C817D907EC
:100B600098F3692D81E00E94FF048CE0981204C084
:100B700060E88DE00E942305C0EDD7E084E00E948C
:100B80001205182F219721F080FD02C08073B1F368
:100B900060E88DE00E943105CD2BC9F186E00E940E
:100BA00012058B71B1F510FD02C0C1E001C0C0E0BB
:100BB000ECE09E122FC08AE00E941205D82F8CE034
:100BC0000E941205877049F02D2F30E02150310925
:100BD000220F220F220F820F04C08D2F880F880F43
:100BE000880FF6018083C12CD12C0BC05701AC0CAF
:100BF000BD1C89E00E941205F5018083FFEFCF1A2A
:100C0000DF0A8D2F90E0C816D90680F303C0C0E03C
:100C100001C0C0E08C2FDF91CF911F910F91FF9009
:100C2000EF90DF90CF90BF90AF909F908F900895FE
:100C3000EF92FF920F931F93CF93DF931F92CDB745
:100C4000DEB7182F7B0167E08DE00E94FF04F701FB
:100C500010838E010F5F1F4F970141E0B7018CE0B9
:100C60000E948005882329F08981803121F080E06D
:100C700003C080E001C081E00F90DF91CF911F9110
:100C80000F91FF90EF900895EF92FF920F931F93B3
:100C9000CF93DF931F92CDB7DEB77C0160E08DE08C
:100CA0000E94FF0483E9F701808380E281838E0143
:100CB0000F5F1F4F970142E0B7018CE00E94800553
:100CC000882391F090E080E006C0F701E80FF11D65
:100CD000208192278F5F8430C0F3F701248181E067
:100CE000921719F080E001C080E00F90DF91CF9162
:100CF0001F910F91FF90EF90089584B1826084B9A5
:100D000082E8809380008AE1809381008FE39CE9F0
:100D1000909387008093860088EB9BE090938900F6
:100D2000809388000895853B08F084EB282F30E0FD
:100D3000A0E1BEE00E94CB0624EB30E040E050E0B2
:100D40000E94A906245B3B4F3093890020938800C2
:100D50000895A1E21A2EAA1BBB1BFD010DC0AA1FFC
:100D6000BB1FEE1FFF1FA217B307E407F50720F014
:100D7000A21BB30BE40BF50B661F771F881F991F8F
:100D80001A9469F760957095809590959B01AC01D8
:100D9000BD01CF010895A29FB001B39FC001A39FE1
:100DA000700D811D1124911DB29F700D811D1124A4
:100DB000911D0895AEE0B0E0E0EEF6E00C94A909D4
:100DC0000D891E898F89988D26E02C831A830983CB
:100DD00097FF02C080E090E801979E838D83AE016B
:100DE000455E5F4F698D7A8DCE0101960E940A079C
:100DF0004D815E8157FD0AC02F8138854217530708
:100E00000CF49A01F801E20FF31F10822E96E4E031
:100E10000C94C509ABE0B0E0E0E1F7E00C949B096D
:100E20006C017B018A01FC0117821682838181FF9C
:100E3000CCC1CE0101963C01F6019381F70193FDEF
:100E4000859193FF81917F01882309F4BAC185328E
:100E500039F493FD859193FF81917F01853229F4C7
:100E6000B60190E00E940109E7CF912C212C312C92
:100E7000FFE1F315D8F08B3279F038F4803279F055
:100E80008332A1F4232D20611DC08D3261F08033A7
:100E900069F4232D216016C0832D8260382EE32D46
:100EA000E4603E2E2AC0F32DF8601DC037FC2DC033
:100EB00020ED280F2A3040F08E32B9F436FC81C183
:100EC000232D2064322E19C036FE06C08AE0989E7B
:100ED000200D1124922E11C0EAE02E9E200D112427
:100EE000222EF32DF0623F2E08C08C3621F4832D84
:100EF0008068382E02C0883641F4F70193FD859151
:100F000093FF81917F018111B3CF982F9F7D9554DD
:100F1000933028F40C5F1F4F9FE399830DC08336F5
:100F200031F0833771F0833509F059C021C0F801E1
:100F3000808189830E5F1F4F88248394912C5301F5
:100F400013C02801F2E04F0E511CF801A080B180BF
:100F500036FE03C0692D70E002C06FEF7FEFC50160
:100F60000E94F6084C018201F32DFF773F2E16C038
:100F7000280122E0420E511CF801A080B18036FE0B
:100F800003C0692D70E002C06FEF7FEFC5010E94C2
:100F9000EB084C01F32DF0683F2E820133FC1BC09F
:100FA000822D90E088169906B0F4B60180E290E0B8
:100FB0000E9401092A94F4CFF50137FC859137FE90
:100FC00081915F01B60190E00E94010921102A94ED
:100FD00021E0821A91088114910471F7E8C08436E7
:100FE00011F0893641F5F80137FE07C06081718143
:100FF000828193810C5F1F4F08C060817181072E31
:10100000000C880B990B0E5F1F4FF32DFF763F2EC0
:1010100097FF09C090958095709561957F4F8F4F90
:101020009F4FF0683F2E2AE030E0A3010E943D0967
:10103000882E861845C0853731F4232D2F7EB22E99
:101040002AE030E025C0932D997FB92E8F36C1F06C
:1010500018F4883579F0B5C0803719F0883721F059
:10106000B0C0E92FE061BE2EB4FE0DC0FB2DF460D0
:10107000BF2E09C034FE0AC0292F2660B22E06C03A
:1010800028E030E005C020E130E002C020E132E09D
:10109000F801B7FE07C060817181828193810C5F86
:1010A0001F4F06C06081718180E090E00E5F1F4F8E
:1010B000A3010E943D09882E8618FB2DFF773F2E45
:1010C00036FE0DC0232D2E7FA22E891458F434FE37
:1010D0000BC032FC09C0832D8E7EA82E05C0B82C13
:1010E000A32C03C0B82C01C0B92CA4FE0FC0FE0174
:1010F000E80DF11D8081803321F49A2D997EA92E6F
:1011000009C0A2FE06C0B394B39404C08A2D8678A9
:1011100009F0B394A3FC11C0A0FE06C0B21488F479
:10112000280C922C9B180EC0B21460F4B60180E219
:1011300090E00E940109B394F7CFB21418F42B1871
:1011400002C0982C212CA4FE10C0B60180E390E0D0
:101150000E940109A2FE17C0A1FC03C088E790E02D
:1011600002C088E590E0B6010CC08A2D867859F05F
:10117000A1FE02C08BE201C080E2A7FC8DE2B601B5
:1011800090E00E940109891438F4B60180E390E0F0
:101190000E9401099A94F7CF8A94F301E80DF11D9A
:1011A0008081B60190E00E9401098110F5CF2220D4
:1011B00009F442CEB60180E290E00E9401092A942F
:1011C000F6CFF6018681978102C08FEF9FEF2B96B5
:1011D000E2E10C94B709FC010590615070400110E8
:1011E000D8F7809590958E0F9F1F0895FC01615050
:1011F000704001900110D8F7809590958E0F9F1F39
:1012000008950F931F93CF93DF93FB01238121FD5B
:1012100003C08FEF9FEF2CC022FF16C0468157817D
:10122000248135814217530744F4A081B1819D0187
:101230002F5F3F4F318320838C93268137812F5F2F
:101240003F4F3783268314C08B01EC01FB010084E0
:10125000F185E02D0995892BE1F6D80116968D913F
:101260009C911797019617969C938E931697CE0193
:10127000DF91CF911F910F910895FA01AA2728308D
:1012800051F1203181F1E8946F936E7F6E5F7F4F53
:101290008F4F9F4FAF4FB1E03ED0B4E03CD0670FCF
:1012A000781F891F9A1FA11D680F791F8A1F911D22
:1012B000A11D6A0F711D811D911DA11D20D009F472
:1012C00068943F912AE0269F11243019305D3193B4
:1012D000DEF6CF010895462F4770405D4193B3E09D
:1012E0000FD0C9F7F6CF462F4F70405D4A3318F044
:1012F000495D31FD4052419302D0A9F7EACFB4E0F5
:10130000A6959795879577956795BA95C9F70097AC
:101310006105710508959B01AC010A2E069457954D
:10132000479537952795BA95C9F7620F731F841FA4
:10133000951FA01D08952F923F924F925F926F923A
:101340007F928F929F92AF92BF92CF92DF92EF9255
:10135000FF920F931F93CF93DF93CDB7DEB7CA1BD6
:10136000DB0B0FB6F894DEBF0FBECDBF09942A8801
:10137000398848885F846E847D848C849B84AA84A9
:10138000B984C884DF80EE80FD800C811B81AA8136
:10139000B981CE0FD11D0FB6F894DEBF0FBECDBF01
:0813A000ED010895F894FFCF60
:1013A80001081324913E1BED00486F75723A200026
:1013B80050617373776F72643A2000537461747567
:1013C8007320446F6F723A004F50454E0053756357
:1013D80063657366756C20436F646521004F7065A3
:1013E8006E696E6720446F6F722E2E2E00496E63F1
:1013F8006F727265637420436F646521005472795B
:1014080020616761696E2E2E2E00456E74727920F8
:10141800486973746F72790050726573732027235B
:10142800273A204E6578740025752E2025303275B0
:101438003A2530327520202020202000454E4420B7
:10144800202020202020202020202020002575007A
:10145800253032753A25303275002D204368616E8B
:1014680067696E6720436F6465004E657720436F38
:1014780064653A2000496E636F7272656374205226
:061488004649442100006A
:00000001FF
